:020000040800F2
:1000000010130020050100087F360008492E000863
:100010007D360008D9060008F14500080000000000
:10002000000000000000000000000000033B00088A
:10003000810A00080000000071380008BF3E000877
:100040001F0100081F0100081F010008C539000832
:100050001F0100081F0100081F0100081F01000800
:100060001F0100081F0100081F0100081F010008F0
:100070001F0100081F0100081F0100081F010008E0
:100080001F0100081F0100089D0400081F0100084F
:100090001F0100081F0100081F0100081F010008C0
:1000A0001F0100081F0100081F0100081F010008B0
:1000B0001F0100081F0100081F0100081F010008A0
:1000C0001F0100081F0100081F0100081F01000890
:1000D0001F010008D9450008E54500081F01000878
:1000E0001F010008753800081F010008DFF810D054
:1000F00000F0C2F900480047B5590008AFF300808E
:10010000101300200648804706480047FEE7FEE738
:10011000FEE7FEE7FEE7FEE7FEE7FEE7FEE7FEE7B7
:10012000493F0008ED00000840EA01039B0703D0A7
:1001300009E008C9121F08C0042AFAD203E011F826
:10014000013B00F8013B521EF9D27047D2B201E0E8
:1001500000F8012B491EFBD270470022F6E710B5CC
:1001600013460A4604461946FFF7F0FF204610BD25
:1001700030B505462A460B4612F8010B13F8014B21
:1001800008B1A042F8D01CB1002802D06D1CF1E7E4
:10019000284630BD10B5044604E00B7800F8013B5A
:1001A00003B1491C521EF8D2204610BDCAB2401EEF
:1001B00010F8011F8A4202D00029F9D100207047AF
:1001C000421C10F8011B0029FBD1801A704710B5A2
:1001D000002200E0521C835C8C5CA34201D1002B06
:1001E000F8D1D8B2E1B2401A10BD30B505460020B2
:1001F000034600E05B1C934205D2EC5CC85C201A0D
:1002000001D1002CF6D130BDF0B480EA0102D40F48
:100210004200B2EB410F02D20246084611464A00A4
:1002200042D0C30DDDB2C1F3C752AD1A202D35DA6D
:10023000C1F3160141F4000204B15242C5F1200697
:1002400002FA06F12A411044B3EBD05F23D0C4B1C7
:10025000012DA0EBC35009DCF0BC4FF0004202EAD4
:10026000C352DBB200F5000000F0D7B8400000F147
:10027000807000EBC350A0F1807040EAD17049005B
:1002800009E0490841EAC071A0EBC35000F5000045
:10029000400800EBC350F0BC00F0B6B86142012248
:1002A00002EB4101001BF6E7F0BC704781F0004112
:1002B000AAE780F00040A7E780EA010210B502F04B
:1002C0000043400022D04A001FD0010E01EB126112
:1002D000C0F35600C2F3560240F4000042F400029C
:1002E000A0FB022000047F39140400D0401C50EA17
:1002F000124001D44000491EC2B20C0604EBD010DB
:10030000401C4008802A02D003E0002010BD20F0ED
:100310000100002900DA0020184310BD30B480EA43
:10032000010202F0004530F0004221F0004013D0FD
:1003300090B1C30DD40DC2F31601C0F31600E41A38
:1003400041F4000140F400027D34914201D3641C69
:1003500000E04900002C02DA30BC002070474FF466
:1003600000000023914201D3891A034340084FEA59
:100370004101F7D151B1914202D14FF0004105E066
:1003800002D24FF0010101E06FF0010103EBC45014
:10039000284430BC00F038B8C10F80EAE07008444F
:1003A000CA079623002100F038B896230022114690
:1003B00000F033B820F00040C10DC0F3160040F447
:1003C00000007F2901DA00207047962903DCC1F183
:1003D0009601C840704796398840704730B50B4643
:1003E000014600202022012409E021FA02F59D4265
:1003F00005D303FA02F5491B04FA02F52844151E39
:10040000A2F10102F1DC30BD0029A8BF7047401CF9
:10041000490008BF20F00100704710B4B0FA80FC1A
:1004200000FA0CF050EA010404BF10BC704749B157
:10043000CCF1200421FA04F411FA0CF118BF0121C7
:1004400021430843A3EB0C01CB1D4FEA00614FEAA7
:10045000102042BF002010BC704700EBC350104476
:100460000029A4BF10BC7047401C490008BF20F001
:10047000010010BC70470000064C074D06E0E06824
:1004800040F0010394E8070098471034AC42F6D3DB
:10049000FFF730FEA8620008C8620008014800F0BB
:1004A00075BB0000480B002070B5044600688168E9
:1004B000C943C90717D1816821F00101816000F0AB
:1004C000C9FF05460AE000BF00F0C4FF401B022838
:1004D00004D920688068C043C00706D020688068BF
:1004E000C043C007F0D0002070BDA06A40F01000EB
:1004F000A062E06A40F00100E062012070BD0000EF
:10050000F8B500260446009600688168C943C9070B
:100510002DD0816841F001018160164816490068BC
:10052000B0FBF1F000E0401E00900028FBD100F08D
:1005300091FF054616E000BF00F08CFF401B02282B
:1005400010D920688068C043C0070BD0A06A40F073
:100550001000A062E06A40F00100E06284F82460CC
:100560000120F8BD20688068C043C007E4D10020A6
:10057000F8BD0000B400002040420F00002808D061
:1005800004490A7802704A7842708A788270C97881
:10059000C17070475A00002010B50C4C0122022196
:1005A000204600F052FF01228021094800F04DFF53
:1005B00001221146204600F048FF06480021322261
:1005C000017041708170C270017110BD000C01405A
:1005D000000801405E000020002814D002780A497B
:1005E000531E312B00D20A704278531E272B00D2A3
:1005F0004A708278531E632B00D88A70C078421EDE
:10060000632A00D8C87070475A0000202DE9F047CF
:100610000646642A00D964222C4CDFF8B4A0251FBA
:100620002271A87801274FF00008904206D90122D4
:100630000221504600F009FF277009E0E878904257
:1006400006D200220221504600F0FFFE84F800800E
:10065000A94628781D4D1F4BAD1FB04201D82F7001
:1006600007E0801EB04202DB85F8008008E02878B1
:1006700030B100228021184600F0E7FE677006E0E6
:1006800001228021184600F0E0FE84F8018099F8EC
:100690000100B04201D36F7007E0801CB04202D865
:1006A00085F8018009E0687838B10122114650468A
:1006B00000F0CBFEA770BDE8F08700220121504674
:1006C00000F0C3FE84F80280F5E700005E00002021
:1006D000000C014000080140FEE700007CB5344CEE
:1006E000A06940F00800A061A06900F00800019036
:1006F000304800F0B5FEE06920F48000E06121158B
:100700002D4C204600F020FDE114204600F01CFD99
:1007100003F0F8F90A2000F0F3FC00F0A9F8274CE8
:100720000028207042D030218DF8001001236A4645
:100730000A2103F012FB142000F0E2FC00258DF8E2
:10074000005001236A460A21207803F006FB64204A
:1007500000F0D6FC4023621C1021207803F0FDFA43
:10076000C82000F0CDFCC0208DF8000001236A46AF
:100770000821207803F0F1FA322000F0C1FC0420B7
:100780008DF8000001236A460A21207803F0E5FA7B
:10079000642000F0B5FC8DF8005001236A460A2160
:1007A000207803F0DAFAC82000F0AAFC7CBD000033
:1007B00000100240CC0B0020000C01400000002083
:1007C000F8B504460020E0700326284D09E0022316
:1007D0006A461946287803F0DAF9F8B1052000F0E6
:1007E0008FFC761EF6B2F2D2022602236A4604215C
:1007F000287803F0CCF9F8B1052000F081FC761ED2
:10080000F6B2F2D2E07800282ED1208800282BD032
:1008100041F26801884217D3642024E0BDF800004B
:1008200040F2311140BA48434FF47A71B0FBF1F015
:1008300020800120E070D7E79DF80000A0706428B8
:10084000E0D96420A070DDE740F6B831884201D8D5
:10085000002008E06421A0F6B83048434FF49661C8
:10086000B0FBF1F0C0B2A070F8BD000000000020A5
:10087000FEB51DA10024D1E900016E46CDE90001BD
:10088000355D0123284602AA0A2103F080F928B326
:10089000052000F035FC641CE4B2052CF0D303F015
:1008A00018FA002003F0F8F9012000F029FC03F009
:1008B00025FA082403F00DFA6006000E03F0ECF9A7
:1008C00003F02DFA60B103F019FA012000F018FCD2
:1008D000641CE4B2782CEDD30020FEBD2846FEBD9A
:1008E00003F00CFA2046FEBD6263646566000000FA
:1008F0007FB5002002904FF480741120CDE90040B4
:100900000320074D03906946284600F0A9FC04B077
:1009100021462846BDE87040012200F096BD000047
:10092000000801402DE9F0410020DFF86C8004460A
:100930004FF480764006070E002504E06D1CEDB2F2
:10094000012000F0EFFB3146404600F079FD08B988
:10095000642DF3D31E2000F0E5FB3146404600F045
:100960006FFD012807D00020641C3843E4B2082C36
:10097000E0D3BDE8F081002504E06D1CEDB201205C
:1009800000F0D0FB3146404600F05AFD012801D16D
:10099000642DF2D30120E7E7000801402DE9FC4176
:1009A000364D07464FF4807400222146284600F059
:1009B0004CFD142000F0A4FB01222146284600F043
:1009C00044FD1E2000F0AEFB002604E0761CB6B20B
:1009D000012000F0A7FB2146284600F031FD012848
:1009E00003D0642E48D2002607E0642EEED343E005
:1009F000761CB6B2012000F095FB2146284600F097
:100A00001FFD20B1642E37D20026A04607E0642ED9
:100A1000EED331E0761CB6B2012000F083FB4146F4
:100A2000284600F00DFD012824D0642E24D2002495
:100A30004FEA0D06FFF776FF3055641CE4B2052C33
:100A4000F8D301224146284600F0FFFC9DF8001033
:100A50009DF801009DF803300A189DF80200034438
:100A60001A449DF804309A4206D1797038700120FA
:100A7000BDE8FC81642ECDD30020F9E700080140D9
:100A8000704772B6FEE77047F8B50024009490F8FE
:100A900024202546012A12D0012280F824204A6809
:100AA0001F23072A0DD20668776B521E02EB8202C3
:100AB00093409F430B6893401F43776319E00220E4
:100AC000F8BD06680D2A0AD2376BD21F02EB8202EC
:100AD00093409F430B6893401F43376309E0F76AD5
:100AE0000D3A02EB820293409F430B6893401F43F1
:100AF000F7620A68072306680A2A0AD3F7680A3ADF
:100B000002EB420293409F438B6893401F43F76080
:100B100008E0376902EB420293409F438B689340A1
:100B20001F4337610A68102A01D0112A20D1124BC5
:100B300002689A4217D193681B0219D4936843F450
:100B4000000393600968102912D10C490C4A096806
:100B5000B1FBF2F101EB8101490000E0491E009177
:100B60000029FBD104E0816A41F020018162012467
:100B700080F824502046F8BD00240140B400002035
:100B800040420F0070470068C06C704770B5044663
:100B9000006806684568A90625D5B10723D5A16A6E
:100BA000C90603D4A16A41F40071A1628168C1F34E
:100BB0004241072910D1217B71B9416821F0200100
:100BC0004160A06A20F48070A062A06AC00403D4CF
:100BD000A06A40F00100A0622046FFF7D3FF216821
:100BE0006FF01200086028062ED570072CD5A06A79
:100BF000C00603D4A06A40F40050A0622068816857
:100C0000C1F30231072909D04168490515D481682B
:100C1000C1F34241072910D1217B71B9416821F00C
:100C200080014160A06A20F48050A062A06AC005E3
:100C300003D4A06A40F00100A0622046FFF723FF22
:100C400021686FF00C00086068060CD5F0070AD028
:100C5000A06A40F48030A062204600F093F821683A
:100C60006FF00100086070BD2DE9F0414FF0000702
:100C700004003D467ED0A06A002628B9E66284F8CA
:100C80002460204600F080F82046FFF70DFCA16AA2
:100C9000C90600D420B1A06A40F01000A06269E04B
:100CA000A16A21F4885141F00201A1626268E16900
:100CB000237B0A4347EA43010A43A1684FF4807744
:100CC000B94209D0012907D05FF0000194F814C09F
:100CD000BCF1010F02D00AE03946F7E7F3B1A36A8D
:100CE00043F02003A362E36A43F00103E362236855
:100CF000D3F804C02CF4694C4CEA010CC3F804C0CE
:100D000021688B68DFF870C003EA0C0313438B6023
:100D1000A168B9420BD0012909D00CE0DFF85CC012
:100D2000A3690CEB43330B4343F40061DFE7218AF3
:100D30000D05A5F580152168CB6A23F470032B43BC
:100D4000CB62216889680E4B1940914208D1E66256
:100D5000A16A21F0020141F00101A162BDE8F08128
:100D6000A06A20F0020040F01000A062E06A40F0AB
:100D70000100E0620120F1E7FDF7E1FF00E0FFFF85
:100D8000FE0E1FFF7047000000B585B000210091E6
:100D900001910291039100681249884220D11248C2
:100DA000816941F400718161816901F400710491EC
:100DB000816941F0040181618069694600F00400A5
:100DC00004900220009003200190084800F048FAA7
:100DD00000220221122000F02DFE122000F01CFE45
:100DE00005B000BD00240140001002400008014091
:100DF0002DE9F84300270D460446009700F02AFB32
:100E0000804620688168C90508D5A06A40F02000A6
:100E1000A06284F824700120BDE8F8834168C90508
:100E200003D4C06A10F4700F2AD0022000F03AFEFA
:100E30003B490968B1FBF0F62068036939490B4268
:100E40004FEA61014FEAA1121FD1C3684FEA611C4A
:100E500013EA0C0F19D103690B4225D1C068104267
:100E600022D1142023E0681C0AD02DB100F0F2FA40
:100E7000A0EB0800A84203D920680068800725D5A8
:100E8000206800688007EED52DE003690B4202D18F
:100E9000C168114206D0026923490A4206D1C068DE
:100EA000084203D1542002E0292000E0FC20464300
:100EB000009816E0681C11D02DB100F0CBFAA0EB21
:100EC0000800A8420AD90098B04207D2A06A40F0B0
:100ED0000400A06284F8247003209DE70098401C61
:100EE0000090B042E6D321686FF012000860A06A5B
:100EF00040F40070A06220688068C0F34240072878
:100F00000CD1207B50B9A06A20F48070A062A06A46
:100F1000C00403D4A06A40F00100A06200207BE777
:100F2000B4000020244992244992240070B504465C
:100F300090F8240001280DD0012084F824002046D8
:100F4000FFF7DEFA02004FF0000005D084F824001D
:100F5000104670BD022070BDA16A40F20123994382
:100F600041F48071A1621F4D23681F49AB4218D123
:100F70000E6816F4702F14D0A66A46F48016A66286
:100F80000E68760505D5A66A26F4005646F4805606
:100F9000A662A66AF6040AD5E66A26F00606E662A6
:100FA00006E0A66A26F48016A6625E68E9E7E062BB
:100FB00084F824006FF00200186020688368C3F38F
:100FC0004243072B05D1A84208D1096811F4702FBC
:100FD00004D0816841F480118160B9E7816841F4EF
:100FE000A001F9E7002801400424014010B504469F
:100FF00090F82400012807D0012084F8240020461E
:10100000FFF752FA10B107E0022010BDA16A21F4E7
:10101000885141F00101A162002184F8241010BD23
:1010200010B590F821100022022905D00421816317
:1010300080F82020012010BD01680B6823F00E030A
:101040000B6001680B6823F001030B6090F84030DF
:10105000C46B012101FA03F3636080F8211080F86A
:101060002020104610BD000010B590F8211000247B
:10107000022903D00421816301243DE001680A684C
:1010800022F00E020A6001680A6822F001020A607A
:101090001A4A0168914201D1012121E0174A143214
:1010A000914201D110211BE0144A2832914201D112
:1010B000891515E0114A3C32914201D189140FE0A3
:1010C0000E4A5032914202D14FF4803108E00B4A6F
:1010D0006432914202D14FF4801101E04FF08071EF
:1010E000064A083A5160012180F82110002180F859
:1010F0002010416B01B18847204610BD0800024016
:1011000070B5044600F0A6F90546601C02D00448FC
:101110000078044400F09EF9401BA042FAD370BD51
:10112000A80000200649074A0968B1FBF2F14143D3
:101130000520B1FBF0F000E000BF401EFCD270477C
:10114000B400002040420F002DE9F04300233E4F41
:101150000F2573E001229A400A406DD023F003046A
:10116000E619D6F808809C074FEA147C05FA0CF9BA
:1011700009EA0804DFF8D480404502D14FF00008A6
:1011800016E0DFF8CC80404502D14FF001080FE0B7
:10119000DFF8C080404502D14FF0020808E0DFF8D8
:1011A000B880404502D14FF0030801E04FF0040839
:1011B00008FA0CF8A04522D1284CD4F800C02CEA3B
:1011C000020CC4F800C0241DD4F800C02CEA020CA4
:1011D000C4F800C0214C0C34D4F800C02CEA020C36
:1011E000C4F800C0241FD4F800C02CEA020CC4F8D4
:1011F00000C0D6F808C02CEA090CC6F808C0FF2ABF
:1012000001D8064601E000F104064FEA830401D943
:10121000A4F12004D6F800C005FA04F82CEA080C62
:101220004FF0040808FA04F84CEA080CC6F800C0AD
:10123000C46824EA0204C46003F1010331FA03F232
:1012400088D1BDE8F08300000000014000080140A3
:10125000000C014000100140001401400004014056
:101260002DE9F84FDFF8B8910024A9F1040B2346CB
:101270000F2709F1040AABF1040EC9E00125A540CE
:101280002A40AA427DD1674ED1F804C0ACEB0608D3
:10129000B44532D014DCBCF1030F3AD009DCBCF108
:1012A000000F2AD0BCF1010F1CD0BCF1020F31D1CC
:1012B0001DE0BCF1110F17D0BCF1120F2AD119E0BB
:1012C000B8F5881F19D006DCB8F5803F15D0B8F501
:1012D000801F1FD111E0B8F5001F0ED0B8F5041F14
:1012E00018D10AE0CB6815E0CB681B1D12E0CB6873
:1012F00008330FE0CB680C330CE08B682BB1012B6B
:101300004FF0080303D0456104E0042302E00561C7
:1013100000E00023FF2A01D8064601E000F10406A0
:101320004FEA840501D9A5F12005D6F8008007FA17
:1013300005FC28EA0C0803FA05F548EA0508C6F892
:1013400000804D68ED0062D5374DAE6946F001066C
:10135000AE61AD6924F0030605F001050095334D3B
:1013600006EB050CDCF80850A607360F07FA06F85E
:1013700025EA0805DFF8B880404503D14FF00008A2
:1013800017E044E0DFF8AC80404502D14FF001089F
:101390000FE0DFF8A480404502D14FF0020808E0DA
:1013A000DFF89880404502D14FF0030801E04FF08C
:1013B000040808FA06F848EA0508CCF808804D68E1
:1013C000D9F80060ED024D4601D5164300E0964382
:1013D0002E604D68DAF80060AD02554601D516431F
:1013E00000E096432E604D68DBF80060AD035D467B
:1013F00001D5164300E096432E604D68DEF800608C
:10140000ED03754601D5164300E096432E60641C3B
:101410000D682A46E5407FF431AFBDE8F88F000043
:1014200008040140000011100010024000000140BB
:1014300000080140000C0140001001400014014070
:101440008068084000D0012070470AB101617047F0
:101450000904FBE70148806870470000A8000020ED
:1014600010B5040013D0242084F83D0020680168E2
:1014700021F001010160204600F0FEF90020206407
:1014800084F83D0044F8300FA073207310BD012094
:1014900010BD000070B5040025D094F83D00002573
:1014A00020B984F83C50204600F012FA242084F839
:1014B0003D002068016821F0010101602068016899
:1014C00041F4004101602068016821F4004101609D
:1014D00000F046FC4D4A6168914201D84C4900E059
:1014E0004C49884201D2012070BD4B492368B0FBB2
:1014F000F1F15E6826F03F060E435E60636893423A
:1015000006D94FF4967359434FF47A73B1FBF3F154
:101510002368491C1E6A26F03F0631431962616840
:10152000914210D84900401EB0FBF1F2521CC2F3A8
:101530000B02042A01D2042022E0B0FBF1F0401C8F
:10154000C0F30B001CE0A268F2B301EBC10303EB94
:101550000116431EB3FBF6F35B1C43F480431B05EB
:1015600049D092B301EBC10202EB0111401EB0FB66
:10157000F1F0401CC0F30B0040F4804040F4004008
:101580002168CA694CF6FF739A431043C861D4E9D5
:10159000071001432068026822F0C0021143016075
:1015A000D4E9030101432068826848F2FF339A437B
:1015B00011438160D4E9050108432168CA6822F01B
:1015C000FF021043C86001E00EE016E020680168E9
:1015D00041F0010101602564202084F83D0025636D
:1015E00084F83E50002070BD01EB4106431EB3FB62
:1015F000F6F35B1CB3E70120C2E701EB4101401E9B
:10160000B0FBF1F0401CC0F30B00B7E7A08601006F
:1016100080841E0000093D0040420F002DE9F84F74
:101620001F4690468A460446DDF82890FFF712FFD1
:10163000054694F83D0020287FD119230122404916
:101640002046009501F0E6FC002876D194F83C0095
:10165000012872D0012084F83C0020680168C90785
:1016600003D1016841F0010101602068016821F4A3
:1016700000610160212084F83D00102084F83E00C4
:1016800000262664C4F824806785608D20852D4857
:10169000E0622B464A465146204601F0EDFB90B9E8
:1016A000206841698069009036E02A464946204614
:1016B00001F056FD50B1206C042804D12068016867
:1016C00041F4007101600120BDE8F88F606A216873
:1016D00000780861606A401C6062618D491E618506
:1016E000218D491E89B2218522685369DB435B073E
:1016F0000BD451B100781061606A401C6062608D4B
:10170000401E6085208D401E20852A464946204681
:1017100001F054FC0028CED1208D0028C5D154F80A
:101720003D0B016841F400710160202004F81E099E
:10173000E67766770020C7E7FFE70220C4E70000EE
:10174000020010000000FFFF2DE9FF4F83B09A4612
:10175000DDE9119793460446DDF84080FFF77AFEF5
:10176000054694F83D0020287FD1192301224049E5
:101770002046009501F04EFC002876D194F83C00FC
:10178000012872D0012084F83C0020680168C90754
:1017900003D1016841F0010101602068016821F472
:1017A00000610160212084F83D00402084F83E0063
:1017B00000262664C4F82480A4F82A90608D208531
:1017C0002C48E062CDE9007553465A4620460499FC
:1017D00001F0A0FB70B930E02A463946204601F0FE
:1017E000BFFC58B1206C042804D12068016841F482
:1017F00000710160012007B0BDE8F08F606A2168C8
:1018000000780861606A401C6062218D491E89B2BF
:101810002185628D521E628522685369DB435B0716
:101820000BD469B100781061606A401C6062208D41
:10183000401E2085608D401E6085208D0028CBD104
:101840002A463946204601F0B9FB0028CAD154F88F
:101850003D0B016841F400710160202004F81E096D
:10186000E67766770020C6E7FFE70220C3E70000BF
:10187000020010000000FFFF10B50068104A114977
:10188000114C904209D1C86920F40010C861402170
:101890002046FFF759FC80210CE00C4A90420ED103
:1018A000C86920F48000C86111152046FFF74CFC80
:1018B0004FF400612046BDE81040FFF745BC10BD65
:1018C0000054004000100240000C0140005800404D
:1018D00030B585B0002100910191029103911E4D18
:1018E00003681E4C122103221D48AB4216D1A36986
:1018F00043F00803A361A369039203F00803049370
:10190000C023CDE900316946FFF7AAFCE06940F445
:101910000010E061E06900F4001019E0114DAB42E5
:1019200017D1A36943F00803A361A369039203F0ED
:10193000080304934FF44063CDE900316946FFF793
:101940008FFCE06940F48000E061E06900F4800011
:10195000049005B030BD000000540040001002406B
:10196000000C014000580040024881680278114490
:1019700081607047A8000020074810B5016841F059
:1019800010010160032000F075F8002000F006F857
:1019900000F024F8002010BD0020024070B50D4D6D
:1019A00004464FF47A712878B1FBF0F00A490968CF
:1019B000B1FBF0F000F0D5FD48B9102C07D20022A1
:1019C0002146501E00F036F800206C6070BD0120EA
:1019D00070BD0000A8000020B40000200C4808B52D
:1019E000816941F001018161816901F0010100918A
:1019F000C16941F08051C161C06900F08050009020
:101A00000448416821F0E06141F00071416008BD87
:101A10000010024000000140002809DB00F01F0216
:101A2000012191404009800000F1E020C0F8001140
:101A300070470000F0B40E4B1B680C46C3F3022342
:101A4000C3F10705042D00D90425191D072901D26A
:101A5000002300E0DB1E012606FA05F1491E2140A5
:101A600099409E40761E16403143F0BC03F0AEBD57
:101A70000CED00E0064900F0070208684FF6FF038E
:101A8000184040EA0220034A1043086070470000F3
:101A90000CED00E00000FA050149012008627047E2
:101AA00000000E4210B501460020234C012922D02F
:101AB000022939D010291DD161682268D20119D5B7
:101AC0001E48C1F38342C903805C0AD561681B4A82
:101AD000C1F34041921E515C194AB2FBF1F14843F7
:101AE00001E0184948436168490203D440000321DA
:101AF000B0FBF1F010BD226AC2F30121012903D12C
:101B0000920701D5C80310BD022905D1626A920768
:101B100002D549F6404010BD0329FCD12168890354
:101B2000F9D54FF2244010BD00F02AF96168C1F3E5
:101B30008131491C4900DBE700100240C860000801
:101B400000127A0000093D002DE9F84305460078AF
:101B5000354CC00754D0E0690026C00008D4E069C5
:101B600040F08050E061E069012600F08050009074
:101B70002E480168C90512D40168804641F480717D
:101B80000160FFF767FC074605E000BFFFF762FC56
:101B9000C01B642823D8D8F80000C005F6D5206AF9
:101BA00010F4407021D0A98801F4407181421CD00A
:101BB000206A1F49012220F440700A6000220A6056
:101BC0002062C00711D0FFF745FC074641F2883874
:101BD00008E000BFFFF73EFCC11B414502D90320CE
:101BE000BDE8F883206A8007F4D5206A696820F48C
:101BF0004070084320621EB1E06920F08050E0612F
:101C00002878800705D56068A96820F4404008431B
:101C100060602878C00605D56068E96820F4800017
:101C2000084360600020DBE70010024000700040C5
:101C3000400442422DE9F0470F46050061D0434E73
:101C4000306800F00700B84209D2306820F0070081
:101C500038433060306800F00700B84251D128683E
:101C60003B4C810712D5400703D5606840F4E06023
:101C700060602878000703D5606840F460506060B9
:101C80006068A96820F0F000084360602878C00709
:101C900028D06868012810D02168022810D0890750
:101CA00000292EDA616821F0030101436160FFF72A
:101CB000D1FB804641F288390DE021688903EFE7C6
:101CC0008901EDE7FFF7C6FBA0EB0801494502D902
:101CD0000320BDE8F0876068696800F00C00B0EB95
:101CE000810FEFD1306800F00700B8420BD930689F
:101CF00020F0070038433060306800F00700B84239
:101D000001D00120E5E72878400705D56068E9683B
:101D100020F4E060084360602878000706D560681A
:101D2000296920F4605040EAC100606000F038F892
:101D30006168084AC1F30311515CC8400649086054
:101D400006480068FFF72AFE0020C2E70020024094
:101D500000100240D8600008B4000020AC00002051
:101D60000448054900684968044AC1F30221515CEE
:101D7000C8407047B400002000100240E86000082E
:101D80000448054900684968044AC1F3C221515C0E
:101D9000C8407047B400002000100240E86000080E
:101DA0000E4A51680E4801F00C03042B11D0082B89
:101DB0000FD10C48C1F38343C903C05C0AD55168F5
:101DC000084AC1F34041921E515C054A5043B0FBA2
:101DD000F1F070470449484370470000001002408A
:101DE00000127A00B660000800093D002DE9F84FA6
:101DF000040070D02078C04DC00749D06868C0F397
:101E00008100012807D06868C0F38100022809D149
:101E10006868C00306D52868800339D56068002843
:101E2000E7D035E06068B0F5803F0BD010B1B0F579
:101E3000A02F11D0286820F480302860286820F472
:101E4000802002E0286840F480302860606890B10B
:101E5000FFF700FB06460AE0286840F4802028606F
:101E6000F0E700BFFFF7F6FA801B642873D82868F4
:101E70008003F7D50CE0FFF7EDFA064605E000BF5A
:101E8000FFF7E8FA801B6428F0D828688003F7D4AD
:101E900020789A4E80074FF001094FF0000839D59D
:101EA000686810F00C0F07D06868C0F38100022842
:101EB00009D16868C00306D42868800714D5206952
:101EC000012808D110E02069B0B1C6F80090FFF7F2
:101ED000C1FA074605E00AE1FFF7BCFAC01B022879
:101EE000C4D828688007F7D52868616920F0F80011
:101EF00040EAC10028600DE0C6F80080FFF7AAFAAA
:101F0000074604E0FFF7A6FAC01B022823D828687A
:101F10008007F7D4207800072CD57948A169D9B17A
:101F2000C0F80090FFF796FA074604E0FFF792FA30
:101F3000C01B02280FD8686A8007F7D571484FF494
:101F4000FA510068B0FBF1F0009000BF0098411E0C
:101F50000091FAD20EE080E0C0F80080FFF77AFA34
:101F6000074604E0FFF776FAC01B022875D8686AB6
:101F70008007F7D42078400760D5E8690027C000C3
:101F800008D4E86940F08050E861E869012700F072
:101F9000805000905C480168C90513D401688346ED
:101FA00041F480710160FFF755FA824606E000BFF8
:101FB000FFF750FAA0EB0A0064284ED8DBF80000C7
:101FC000C005F5D5E06801280AD008B1052813D06E
:101FD000286A20F001002862286A20F0040002E04C
:101FE000286A40F001002862E06841F2883B98B11D
:101FF000FFF730FA82460BE0286A40F004002862BE
:10200000EEE700BFFFF726FAA0EB0A0159455AD8C0
:10201000286A8007F6D50CE0FFF71CFA824605E037
:10202000FFF718FAA0EB0A0159454CD8286A800737
:10203000F6D41FB1E86920F08050E861E06988B308
:102040006968C1F38101022944D00228C6F8608082
:1020500004D0FFF7FFF9044638E034E0FFF7FAF95F
:10206000074604E0FFF7F6F9C01B02282BD82868C2
:102070008001F7D4206AB0F5803F05D16868A16877
:1020800020F4003008436860D4E908010843696817
:1020900021F4741108436860C6F86090FFF7DAF91C
:1020A000044606E025E000BFFFF7D4F9001B022834
:1020B00009D828688001F7D51BE000BFFFF7CAF9EF
:1020C000001B022802D90320BDE8F88F2868800190
:1020D000F4D40EE00128F7D06868226A00F4803159
:1020E000914204D1616A00F47010884201D001204D
:1020F000EAE70020E8E7000000100240000042424A
:1021000080044242B400002000700040024850F8B1
:10211000210080B270470000006C0040024800EBD4
:10212000810091B201607047006C004070477047B9
:1021300010B5044600680168C90717D04168C9078F
:1021400014D040684007204607D5FFF7F0FF21680C
:102150006FF004004860042002E0FFF7E7FF012071
:1021600060742068416821F00101416010BD704732
:1021700010B504460068016889070AD540688007E1
:1021800007D52046FFF7F3FF2068416821F00201E0
:10219000416003494FF4003008600120607410BDB5
:1021A00014040140F8B505004FF0000016460C4637
:1021B000009006D02CB100226946284600F019F89C
:1021C00008B10120F8BD287B2070E87BE070697BB6
:1021D0006170A97BA17056B101F05BFBE070607883
:1021E00001F057FB6070A07801F053FBA070002055
:1021F000F8BD2DE9F04791460C465FEA00084AD049
:1022000084B3D8F800004068400744D4404601F049
:10221000E6FB4FF461620546B0FBF2F1B0FBF2F36E
:1022200002FB13503C23B0FBF3F0B5FBF2F66070F9
:1022300002FB1650B0FBF3F203FB1200A07018294A
:1022400031D31820B1FBF0F7B1FBF0F200FB121014
:102250002070404601F0BCFB411C04D0A84202D9CA
:10226000461B02E017E04FF0FF36A7EB071000EB2C
:102270004000C0EB001005EBC0152946404601F0B8
:102280002CFC40B9701C01D0711900E03146404669
:1022900001F00FFC10B10120BDE8F087394640463F
:1022A00001F002FB00E02170B9F1000F0BD02078A3
:1022B00001F0EFFA2070607801F0EBFA6070A0781E
:1022C00001F0E7FAA0700020E6E7000070B5040016
:1022D00003D0607C002610B105E0012070BD26749B
:1022E000204600F03DF802206074204600F01CF902
:1022F000042550BB204601F02EFB30BB206841680E
:1023000021F007014160A06820B11448016821F064
:10231000010101601148001F0168A26821F4607189
:10232000114301606068411C04D10120FFF7BAFB32
:1023300058B1401E2268C0F303419160216880B209
:10234000C860204601F022FB08B16574C5E7E6735A
:1023500001206073A0736074002070BD306C004079
:1023600008B50068114988421FD1FFF795FB104856
:10237000C16941F00061C161C0690E4900F00060AF
:10238000009001200860014600220320FFF752FB65
:102390000320FFF741FB002211462920FFF74AFBEB
:1023A000BDE808402920FFF737BB08BD00280040E2
:1023B000001002403C0442422DE9F0410D46040069
:1023C0003BD0C5B3207C01283AD04FF0010884F8F7
:1023D000108002206074E87872B301F051FAE07363
:1023E000687801F04DFA6073A87801F049FAA0739B
:1023F000C2B2617BE07B01F031FB20732870204684
:1024000001F0EDFA4FF46161B0FBF1F100251829FC
:102410002DD91822B1FBF2F1A1EB011101EB410121
:10242000C1EB011100EBC1163146204601F055FB0E
:102430000427C8B90BE000E004E00120BDE8F0810A
:102440000220FBE7E07368786073A878CFE7204646
:1024500001F0BEFA411C0AD0B04208D2064901443C
:10246000204601F026FB10B167742574E5E784F877
:10247000118025740020E1E7805101002DE9F04131
:102480000D46040024D01DB3207C012823D04FF03A
:10249000010884F81080022060742878EAB101F005
:1024A000EFF94FF4616100FB01F6687801F0E8F99B
:1024B000C0EB001006EB8006A87801F0E1F93518B2
:1024C0002946204601F009FB0026042710BB0FE037
:1024D0000120BDE8F0810220FBE74FF46161484331
:1024E0006978C1EB011100EB8100A9784518E7E795
:1024F0002068416821F005014160204601F068FA3A
:10250000411C0AD0A84208D206490144204601F0E5
:10251000D0FA10B167742674DAE784F81180267453
:102520000020D6E78051010070B504000AD0206871
:10253000416821F008014160FEF78CFF05464FF429
:102540007A7608E0012070BDFEF784FF401BB042A0
:1025500001D9032070BD206840680007F4D5002031
:1025600070BD10B5401EB0F1807F01D3012010BDB9
:102570004FF0E02460610F21601703F027F800207E
:10258000A06107202061002010BD000070B590F808
:102590003C20012A26D0012480F83C40022280F809
:1025A0003D2003685A689D6822F070060A6832432D
:1025B0005A600D4B02689A4208D0B2F1804F05D0A4
:1025C0000A4B9A4202D00A4B9A4204D1496825F03C
:1025D00080031943916080F83D40002180F83C1051
:1025E000084670BD022070BD002C01400004004070
:1025F0000008004000B585B00021009101910291D2
:10260000039100680B49884211D10B48816941F060
:10261000040181618069694600F004000490402053
:1026200000900220019003900448FEF719FE05B0C7
:1026300000BD0000000400400010024000080140FE
:1026400070B5044690F83C0000260D4601280FD0D6
:10265000012084F83C006AB1042A1DD0082A2FD03A
:102660000C2A3FD00126002084F83C00304670BD83
:10267000022070BD206801F0B3FC2068816941F040
:10268000080181612068816921F00401816120686D
:1026900081692A69114311E0206801F0C9FC2068B2
:1026A000816941F4006181612068816921F4806160
:1026B0008161206881692A6941EA02218161D2E74A
:1026C000206801F0E1FC2068C16941F00801C161A6
:1026D0002068C16921F00401C1612068C1692A69CB
:1026E000114311E0206801F0FBFC2068C16941F44E
:1026F0000061C1612068C16921F48061C161206805
:10270000C1692A6941EA0221C161ACE710B5040040
:1027100003D094F83D0010B107E0012010BD002067
:1027200084F83C00204600F01FF8022084F83D00A9
:10273000211D206801F00AFC012084F8460084F87D
:102740003E0084F83F0084F8400084F8410084F89B
:10275000420084F8430084F8440084F8450084F87B
:102760003D00002010BD000008B500680649884201
:1027700008D10648C16941F00201C161C06900F099
:102780000200009008BD000000040040001002405C
:1027900010B50446022249B104290ED0082913D0ED
:1027A00094F84100012816D0012010BD94F83E0095
:1027B0000128F9D184F83E200FE094F83F00012869
:1027C000F2D184F83F2008E094F840000128EBD1D2
:1027D00084F8402001E084F841200122206801F0C3
:1027E000F1FB0F492068884203D1426C42F4004259
:1027F00042642068884208D0B0F1804F05D0094972
:10280000884202D00849884204D1816801F007015A
:10281000062903D0016841F001010160002010BDCC
:10282000002C014000040040000800407047704741
:10283000F8B5016804460868CA684B6910F00F0FC4
:102840004FF0000559D003F0010602F490773743AA
:1028500065D0C10705D0D10503D5616C41F00101F8
:102860006164410705D5D90703D0616C41F00201CD
:102870006164810705D5D90703D0616C41F004017B
:102880006164010707D502F02001314303D0616C78
:1028900041F008016164616C00293AD0800604D5DA
:1028A000900602D5204601F086FD20684069616CE3
:1028B000C0F38010090700D460B3204601F054FD36
:1028C00020684069400621D52068143050E8001F78
:1028D00021F0400140E80012002AF5D1E06BA8B1D8
:1028E0006D494163E06BFEF7BFFB002811D0E06B40
:1028F000416B01B0BDE8F040084783060FD5930651
:102900000DD52046BDE8F84001F055BD2046FFF743
:102910008EFFF8BD2046FFF78AFF6564F8BD266B81
:102920002023012E7CD1C6067AD5D60678D5086834
:102930004868009048694FF00206400640D5E16BB8
:10294000086840680004000CE8D0A28D8242E5D9F6
:10295000E085886920282DD020680C3050E8001FC1
:1029600021F4807140E80012002AF5D1206814306B
:1029700050E8001F21F0010140E80012002AF5D1C3
:102980002068143050E8001F21F0400140E8001298
:10299000002AF5D184F84230256320680C3050E8D5
:1029A000001F21F0100140E80012002AF5D1E06B71
:1029B000FEF736FB6663A08DE18D401A81B22AE0F6
:1029C000A08DE18D401A81B2E08D0028A6D00029AB
:1029D000A4D022680C3252E8000F20F4907042E834
:1029E0000007002FF5D12068143050E8002F22F0A6
:1029F000010240E80027002FF5D184F8423025631A
:102A000020680C3050E8002F22F0100240E800232C
:102A1000002BF5D166632046FFF708FFF8BDFFE7FE
:102A200005062BD5150629D594F841002128F5D1A6
:102A3000A068B0F5805F01D12069B0B1206A411C67
:102A40002162216800784860E08C401E0004000C80
:102A5000E084E3D12068C16821F08001C160206872
:102A6000C16841F04001C160D8E7206A0088C0F326
:102A700008004860206A801C2062E5E74006CDD54A
:102A80005006CBD5CA68204622F04002CA6084F8BE
:102A9000413000F021F9C1E75943000870B5040046
:102AA00004D094F84100002510B106E0012070BD6B
:102AB00084F84050204600F023F8242084F8410098
:102AC0002068C16821F40051C160204601F0D4FCA7
:102AD0002068016921F4904101612068416921F079
:102AE0002A0141612068C16841F40051C1606564F8
:102AF000202084F8410084F842006563002070BD06
:102B000070B586B0002400940194029403942E4E74
:102B100003682E49022003222D4DB34226D18B6932
:102B200043F480438B618B6903F4804304938B6986
:102B300043F004038B618969039201F0040104915D
:102B40000102CDE9001069462846FEF789FB2815E9
:102B5000CDE90004694628460294FEF781FB002275
:102B600001212520FEF766FF252028E0194EB342FB
:102B700027D1CB6943F40033CB61CB6903F4003335
:102B800004938B6943F004038B618969039201F01C
:102B9000040104910421CDE9001069462846FEF79E
:102BA0005FFB0820CDE90004694628460294FEF741
:102BB00057FB002201212620FEF73CFF2620FEF7CE
:102BC0002BFF06B070BD000000380140001002402D
:102BD000000801400044004090F84230202B01D012
:102BE0000220704721B11AB10023036301F0A0BC99
:102BF0000120704700680B49884211D10A490888B2
:102C0000B0F5FF7F07D8094802780888084B0344CD
:102C1000401C08801A70012204490648FFF7DCBFF7
:102C200070470000003801404400002042000020AE
:102C3000000500207C0C00202DE9F843044690F8A4
:102C40004100984616460D46202802D00220BDE8D5
:102C5000F88385B17EB100206064212084F84100B2
:102C6000FEF7F8FBA6848146E684A0682027B0F52D
:102C7000805F02D003E00120E9E7206910B12E4611
:102C800000250EE000260CE08021204601F06BFCC0
:102C9000A8B9C6B116F8010B21684860E08C401E47
:102CA000E084E08C4B464FF00002CDF80080002815
:102CB000EAD14FF04001204601F055FC40B184F8C4
:102CC00041700320C3E735F8020BC0F30800E3E7C7
:102CD00084F841700020BAE7704708B500EB800126
:102CE00001EBC000009001E000BF0846411E0091CA
:102CF000FAD208BD3EB500244FEA0D0500F058F8A1
:102D000045F82400641C032CF8DB0321684601F01D
:102D1000BFF80E4C01982168401A002802DC002000
:102D200060613EBDFDF738FB6168FDF7C5FA0849F3
:102D3000FDF7F4FA10F1FF4F00D300204FF07C5163
:102D4000FDF762FAFDF736FB60613EBD64000020CE
:102D50008096184B70B586B01348002402948169A0
:102D600041F0040181618069012500F004000490B4
:102D70001020CDE9000503200C4E03906946304633
:102D8000FEF76EFA002210213046FEF75EFB20208F
:102D90008DE8310069463046FEF762FA6420FEF79E
:102DA000AFF906B070BD00000010024000080140FD
:102DB0002DE9F0410024214E214F224D01E0761EE5
:102DC00039D020212846FEF73BFB0028F7D100260A
:102DD000012210212846FEF738FB0120FFF77DFF76
:102DE000640020212846FEF72BFB08B144F00104C3
:102DF000002210212846FEF728FB0120FFF76DFF77
:102E0000761C182EE4DB012210212846FEF71DFB5C
:102E10000120FFF762FF002210212846FEF715FB74
:102E20000120FFF75AFF200201D544F07F442046DD
:102E3000BC60BDE8F0810020B860FAE7801A0600A7
:102E40006400002000080140FEE701684A69D2439F
:102E500052050FD46FF480624A61002140F8301FA0
:102E6000202242738173026942F0040202610173FD
:102E70000120704700207047F8B50446C06A1E461E
:102E80000D461746082807D0012805D010F5803FC9
:102E900002D0206B122804D12068016841F48071AF
:102EA0000160134600224FF001112046009600F009
:102EB000B1F840B120680068C00502D54FF4007039
:102EC00020640320F8BD2069B0F5804F0ED00620A5
:102ED000216800EAD51040F0F000086133463A4618
:102EE0000B49204600F0DEF878B902E005F0FE005C
:102EF00000E0E8B221680861054933463A46891F77
:102F0000204600F0CFF80028DCD00120F8BD0000FA
:102F1000080001002DE9F843044600680D46DDE98C
:102F2000089701689846164641F4807101604B4647
:102F300000224FF001112046009700F06BF848B1D5
:102F400020680068C00502D54FF40070206403209B
:102F5000BDE8F883216805F0FE0008613B464A465B
:102F60001549204600F09EF888B9206841698069BB
:102F700000903A464946204600F0F2F848B1206CED
:102F8000042804D12068016841F400710160012027
:102F9000DEE7F5B2B8F1010F09D02168300A086107
:102FA0003A464946204600F0DBF80028E7D1206881
:102FB00005610020CCE700000200010070B5164654
:102FC0000D4604461EE02046FFF73FFF08B10120F2
:102FD00070BD681C16D0FEF73DFA801BA84200D8D1
:102FE00085B920684069C04340070BD5002044F8EC
:102FF000300F20216173A073216941F0200121610C
:103000002073E4E720684069C0434007DBD4002018
:1030100070BD00002DE9F047984617460D4604465E
:10302000C1F30746DDF820902AE000BFB8F1FF3F6A
:1030300026D0FEF70FFAA0EB0901414502D8B8F1FE
:10304000000F1DD12068012E16D0806925EA0000EE
:103050000004000C12D00020B84211D1002044F826
:10306000300F20216173A073216941F0200121619B
:1030700020730120BDE8F0874069E7E70120EBE716
:103080002068012E0AD0806925EA00000004000CA7
:1030900006D00020B842C9D00020EBE74069F3E732
:1030A0000120F7E72DE9F047984616460D460446FD
:1030B0004FF000094FF0200AC1F3074723E02068D2
:1030C0004069C043400515D42068016841F400718F
:1030D000016021686FF480604861C4F8309084F822
:1030E0003DA084F83E90216C41F00401216484F8F5
:1030F0003C9021E0701C06D0FEF7ACF9A0EB080074
:10310000B04203D816B1012F1FD021E02068012F53
:1031100015D0806925EA00000004000C18D000BF1B
:1031200044F8309F84F80DA084F80E90216941F096
:103130002001216184F80C900120BDE8F0874069EE
:1031400025EA00000004000CEAD12068406901E093
:103150002068806925EA00000004000CAFD1ECE78C
:1031600070B516460D4604461EE02046FFF76DFE7C
:1031700008B1012070BD681C16D0FEF76BF9801BEA
:10318000A84200D885B920684069C04300060BD525
:10319000002044F8300F20216173A073216941F0B1
:1031A000200121612073E4E720684069C0430006E4
:1031B000DBD4002070BD000010B511480F4B012278
:1031C0009914036081808271C27100218160017352
:1031D000C0E90413540304838276C276C16180F887
:1031E0002010C0E909139303838580F82E2080F80E
:1031F0002F20016380F83410816310BD000C014062
:103200000C0B002010B590B058B1164C012825D0F9
:10321000022804D101F038F800F0C6FFE07010B0C9
:1032200010BD00F00FFE18B100F028FE012002E0F2
:1032300000F024FE002000F0DBFF0B48007800289F
:10324000EDD10AA24021684602F0A6F982B24FF4FD
:10325000FA7369460C48FFF7EFFCE0E701F022F84B
:10326000DAE700005E000020A40000205B4B455917
:103270005D2042746E313A20546F67676C65202B75
:10328000205454530D0A0000C40C00202DE9F041D5
:103290000025234FA84600BF05EB850007EB8004FF
:1032A00057F82000A188FEF7CBF8A1790646B14275
:1032B00003D0FEF7CFF8A060A671E079B04203D04A
:1032C000E67126B184F80C80E07948B118E0284610
:1032D000FFF798FF84F80C80FEF7BCF82061F3E755
:1032E00075B1207B90B1FEF7B5F82169401AC82866
:1032F00006D300BFFEF7AEF820612846FFF782FF35
:103300006D1CEDB2032DC7D3BDE8F081FEF7A2F826
:103310002169401AB0F5FA7FF2D301202073E9E762
:103320000C0B002010B50E48FDF700FE0A210C48DA
:10333000FDF75EFD70B100240948FDF757FE6420DB
:10334000444340F6FF70B4FBF0F0C0B2642800D9EB
:10335000642010BD0248FDF716FC84B2ECE70000C3
:10336000480B00203EB500241048009401940294BC
:103370000D498460016004730475012505614FF4F3
:1033800060214460C161FDF76FFC08B1FDF779FB76
:103390000095CDE9015469460448FDF775FB002806
:1033A00001D0FDF76EFB3EBD00240140480B00201C
:1033B0002DE9F04186B00024334800940194029432
:1033C0000394816941F010018161816901F010016C
:1033D0000491816941F020018161816901F020013E
:1033E0000491816941F004018161816901F0040166
:1033F0000491816941F0080181618069DFF88C8066
:1034000000F008000490002210214046FEF71DF84D
:1034100001224FF4C0714046FEF717F81C4F0122FD
:1034200003213846FEF711F8902001250226CDE948
:103430000005CDE9024669464046FDF711FF202010
:103440008DE8310069464046FDF70AFF0320CDE9CB
:103450000005CDE9024669463846FDF701FF4FF405
:10346000E0408DE8310069463846FDF7F9FE280254
:10347000009001AA112082E8510069464046FDF7FC
:10348000EFFE06B0BDE8F0810010024000080140E8
:10349000000C01400D4810B50B4901600C4941601A
:1034A00000214FF480428160C0E9031241618161D3
:1034B000C1610162FDF7EEFF002803D0BDE81040B6
:1034C000FDF7DFBA10BD000000540040780B00206B
:1034D000A08601000D4810B50B4901600C49416000
:1034E00000214FF480428160C0E903124161816193
:1034F000C1610162FDF7CEFF002803D0BDE8104096
:10350000FDF7BFBA10BD000000580040CC0B0020F2
:10351000A08601007CB500241F4801941D49009439
:103520000160611E41604FF480718160FEF7CEFE44
:1035300008B1FDF7A6FA01211748FEF7E7FD45F6A9
:103540005A25A84225D08DF804408DF805408DF805
:103550000640002201A91048FEF790FF08B1FDF7D0
:1035600090FA02208DF8000004208DF801000E2052
:103570008DF802008DF80340002269460648FEF7E8
:103580001BFF08B1FDF77DFA2A4601210248FEF72C
:10359000C5FD7CBD00280040200C002010B58AB07D
:1035A000002407941C2168460894FCF7D6FD1648B1
:1035B000144901604721C0E9011444F61F61C0E9C4
:1035C00003148461FFF7A2F808B1FDF75AFA0794D3
:1035D00007A90D480894FEF7D9FF08B1FDF751FA85
:1035E0006020CDE900040294002269460648049454
:1035F000FFF726F808B1FDF744FA0348FEF7FAFF93
:103600000AB010BD00040040340C00200C4810B576
:103610000A4901604FF4E1314160002181600C22D0
:10362000C160C0E904128161C161FFF737FA002867
:1036300003D0BDE81040FDF724BA10BD00380140AA
:103640007C0C00200C4810B50A4901604FF416515B
:103650004160002181600C22C160C0E904128161D7
:10366000C161FFF71BFA002803D0BDE81040FDF749
:1036700008BA10BD00440040C40C0020FEE7FEE77D
:103680004FF480610148FCF768BD0000C0000020D5
:1036900010B5C820FDF734FDAE2000F0D9F8D520D4
:1036A00000F0D6F8802000F0D3F8A82000F0D0F881
:1036B0003F2000F0CDF8D32000F0CAF8002000F041
:1036C000C7F8402000F0C4F88D2000F0C1F81420A5
:1036D00000F0BEF8202000F0BBF8002000F0B8F8A1
:1036E000A12000F0B5F8C82000F0B2F8DA2000F010
:1036F000AFF8122000F0ACF8812000F0A9F8CF203C
:1037000000F0A6F8D92000F0A3F8F12000F0A0F80E
:10371000DB2000F09DF8402000F09AF8A42000F093
:1037200097F8A62000F094F8AF2000F091F8FFF78A
:10373000A7FFBDE8104000F065B8000070B5203A62
:10374000D3B25F2B00D30023802814D2082912D2D1
:10375000094C03EB430304EB4303084C002200EB4A
:10376000C1118518802D02D28E189D5CA555521C62
:10377000D2B2062AF5D370BD745E0008C0000020E6
:10378000FEB500246D460A260EE000BFB2FBF6F738
:1037900006FB1727B2FBF6F2A3EB040C3037AC4460
:1037A000641C0CF8017CE4B29C42EFD30022EA5482
:1037B0002A4600F015F8FEBD30B50D460446642AD1
:1037C00000D964220323FFF7DBFF1234E0B229465D
:1037D000BDE8304001A200F003B800002500000061
:1037E00070B515460E46044608E031462046FFF700
:1037F000A5FFA41DE4B2802C03D26D1C2A78002AF8
:10380000F3D170BDFEB5002464250F4F802600BFA4
:1038100004F1B000C0B200F01BF8002000F018F86E
:10382000102000F015F807EBC410CDE900060123C5
:103830004022782102950548FDF786FF641CE4B21A
:10384000082CE5D3FEBD0000C0000020780B00204E
:103850001CB5002101918DF8050064200090022321
:1038600001AA78210148FDF7D9FE1CBD780B002084
:10387000704700000148FEF77BBC0000200C0020D0
:10388000010901EB810100F00F0000EB4100C0B223
:103890007047002102E00A38C0B2491C0A28FAD257
:1038A000090740EA116070472DE9F0410446002500
:1038B000C07B627BA37B42E0012A16D0032A14D08E
:1038C000052A12D0072A10D0082A0ED00A2A0CD0B6
:1038D0000C2A0AD0042A10D0062A0ED0092A0CD0AD
:1038E0000B2A0AD0022A0DD028E01F2B0CD30C2A59
:1038F00005D101221346401C20E01E2B04D30123D6
:10390000521C1BE01C2B02D203F1010316E011D163
:1039100083B29E0710D16426B3FBF6F706FB173679
:1039200036B94FF4C876B3FBF6F706FB17331BB96D
:103930001D2303E01D2B01D1032201236D1C8D42A9
:10394000BAD3D1B2E0736173DAB2A27300F086F831
:103950002073BDE8F08170B50446FDF77BFD054698
:103960004FF47A7606E0FDF775FD401BB04201D9B1
:10397000032070BD206840688006F4D52068416847
:1039800041F010014160002070BD000070B5044698
:103990000068416821F010014160FDF75BFD0546BC
:1039A0004FF47A7607E000BFFDF754FD401BB042AC
:1039B00001D9032070BD206840688006F4D500203E
:1039C00070BD00000148FEF7B3BB0000200C0020D2
:1039D0000168086A496A89B241EA00407047006894
:1039E00081698AB2C1698BB2816989B28A4203D086
:1039F000C06961F31F40704743EA0240704700000E
:103A00007CB50D460646DDE906018DF804308DF8DB
:103A1000050014468DF80610002201A90D48FEF796
:103A20002DFD02208DF800008DF801508DF8024028
:103A30008DF80360002269460648FEF7BDFC45F696
:103A40005A2201210348FEF769FB0349012008704F
:103A50007CBD0000200C00207E000020F0B5642416
:103A6000C1EBC1030927A500072603EB01130329B6
:103A7000B3FBF7F100F5FA60114401440AD2401E8D
:103A8000B0FBF4F201EB9001B0FBF5F0891A0844A9
:103A9000001D08E0B0FBF4F201EB9001B0FBF5F083
:103AA000891A0844801CB0FBF6F106FB1100C0B275
:103AB000F0BD70B50D4606460024FFF74CFF48B92F
:103AC0003168280C08623168A8B248623046FFF7B6
:103AD0005DFF00B10124204670BD70B50D4606465D
:103AE0000024FFF738FF48B93168280C8861316835
:103AF000A8B2C8613046FFF749FF00B10124204653
:103B000070BD70471FB5002002904FF48060009098
:103B1000112001900320039069461548FDF7A0FB92
:103B200000F046F95FF0000400F098F800F022F889
:103B300000F08CF800F01EF8641CE4B2142CF3D3EF
:103B400000F046F900F092F800F014F800F086F862
:103B500000F010F800F07AF800F00CF800F028F906
:103B600000F008F800F07AF8BDE81F4000F002B855
:103B7000000C014008B50F208DF8000000E000BFE8
:103B80009DF80000411E8DF80010F8D208BD2DE907
:103B9000F0411F4690460D46044600F09AF8600634
:103BA000000E00F079F800F0BAF880B9284600F06D
:103BB00073F800F0B4F850B900F08BF8012000EB76
:103BC0004400C0B200F068F800F0A9F820B100F09D
:103BD00095F80120BDE8F081002431E0002500F0D7
:103BE000E7F800266806050E00F030F8FFF7C2FF80
:103BF00000F04AF8012801D145F0010500F02EF847
:103C0000FFF7B8FF761CF6B2082EEBD3781E08F843
:103C10000450844204DA00F0DBF800F027F803E0F7
:103C200000F0D6F800F0C4F8FFF7A4FF00F00EF89B
:103C3000FFF7A0FF00F012F8FFF79CFF641CA4B28E
:103C4000BC42CBD300F05AF80020C3E70122910216
:103C50000148FDF7FABB0000000C014000224FF4C0
:103C600080610148FDF7F1BB000C014010B500F088
:103C7000AFF8BDE8104000224FF400610148FDF7A5
:103C8000E4BB0000000C01404FF400610148FDF767
:103C9000D7BB0000000C014070B5044600F098F856
:103CA0000025200602D500F083F801E0FFF7DEFFD3
:103CB0006006040EFFF75EFFFFF7C8FFFFF75AFF2D
:103CC000FFF7CCFFFFF756FF6D1CEDB2082DE8D3D0
:103CD00070BD10B500F07CF800F06AF8FFF7B6FF91
:103CE000FFF748FFFFF746FFFFF7C0FFFFF742FF70
:103CF000FFF7B4FFBDE81040FFF73CBF10B500F080
:103D000067F8FFF7B3FFFFF735FFFFF79FFFFFF7F8
:103D100031FF00F04DF8BDE81040FFF72BBF10B5A4
:103D20004FF4FA7400F044F8FFF724FFFFF78EFF1A
:103D3000FFF720FF03E0641E2404240C09D0FFF7E2
:103D4000A3FF0128F7D0FFF789FFFFF713FF00203B
:103D500010BDFFF783FF012010BD2DE9F0411D4686
:103D600016460F460446FFF7B4FF6006000EFFF745
:103D700093FFFFF7D4FF68B93846FFF78DFFFFF7D1
:103D8000CEFF38B900240CE0305DFFF785FFFFF768
:103D9000C6FF20B1FFF7B2FF0120BDE8F081641C2F
:103DA000A4B2AC42F0D3FFF7A9FF0020F5E7000072
:103DB0001FB50020019003904FF400600090012097
:103DC000029069460148FDF74BFA1FBD000C014007
:103DD0001FB5002002904FF4006000901120019068
:103DE0000320039069460248FDF73AFA1FBD000020
:103DF000000C014007484178002909D001780029CA
:103E000006D0054A4FF4FA7112685163002101701F
:103E10007047000056000020340C002010B500212F
:103E20000648FEF7B5FC05494FF4FA700968486387
:103E30000348002101700121417010BD340C0020A5
:103E40005600002002480078012800D0002070476A
:103E50005600002007484178002909D0017801293F
:103E600006D0054A4FF4FA611268516301210170CE
:103E70007047000056000020340C002003480078F2
:103E8000012801D0FFF7E6BFFFF7B4BF56000020BE
:103E900070B500224D1E0FE0531C0AE050F822407E
:103EA00050F82360B44203DD40F8226040F823401C
:103EB0005B1C8B42F2DB521CAA42EDDB70BDFDF7AE
:103EC00053BD30B593B028216846FCF746F914215C
:103ED0000AA8FCF742F9002401210F94119405204F
:103EE00012940090CDE9024110944FF4803001907B
:103EF00002250491CDE907504FF4E010099068467F
:103F0000FDF774FF08B172B6FEE70F20CDE90A0590
:103F10004FF48060CDE90C4002210AA80E94FDF711
:103F200089FE08B172B6FEE703200F904FF480704F
:103F30001090C00111900FA8FDF706FE002801D0D7
:103F400072B6FEE713B030BD70470000F0B50268EE
:103F5000194B1A4C1A4D4FF08047984205D0B84281
:103F600003D0A04201D0A84203D122F070064A68D3
:103F70003243984205D0B84203D0A04201D0A842B3
:103F800003D122F44074CA6822434C6922F08002B3
:103F9000224302608A68C2620A688262984201D142
:103FA00009690163012141610169C90703D0016900
:103FB00021F001010161F0BD002C0140000400402E
:103FC0000008004010B501F01F030121046A994068
:103FD0008C430462016A9A401143016210BD0000E3
:103FE00030B5036A026A22F0010202624268846903
:103FF00024F073050C682C4323F002058B682B43D7
:104000000A4DA8420BD123F00805CB6822F4407278
:104010002B434D6923F0040315438A692A43426008
:10402000846149684163036230BD0000002C014097
:1040300030B5026A036A23F010030362436884699F
:104040000D6824F4E64444EA05248D6822F0200239
:1040500042EA05120B4DA8420ED1CD6822F0800233
:1040600042EA05124D6923F4406343EA85038D69F2
:1040700022F0400243EA850343608461496881631A
:10408000026230BD002C014030B5036A026A22F49E
:10409000807202624268C46923F4007324F07305DD
:1040A0000C682C438D6843EA05230C4DA8420ED1C1
:1040B000CD6823F4006343EA05234D6922F440529E
:1040C00042EA05128D6923F4806342EA05124260D8
:1040D000C4614968C163036230BD0000002C014027
:1040E00030B5046A026A22F4805202624268C369EF
:1040F0000D6823F4E64343EA05238D6824F4005455
:1041000044EA0534064DA84204D14D6922F48042A8
:1041100042EA85124260C36149680164046230BDAD
:10412000002C01402DE9FC41002269461C48FEF7A5
:1041300060F8002201A91A48FEF734F80025194C4E
:10414000012700BF05EB45000619B17869B99DF854
:104150000010205C814208D19DF8010071788842EE
:1041600003D1032000F044F8B7706D1CEDB2032DAD
:10417000E8D39DF80100617888420FD02179884208
:104180000CD0E179884209D00020014600EB4002C2
:104190002244401CC0B291700328F7D3BDE8FC81D3
:1041A000200C0020000B0020014800787047000020
:1041B0004800002010B50D4C32200022207008214C
:1041C000104600F03FF800220C21012000F03AF8E0
:1041D00000221221022000F035F84FF4FA70FCF7AB
:1041E0008FFF2078BDE8104000F03AB8480000206A
:1041F00040B1012808D0022808D0032808D105A022
:1042000000F05EB806A0FBE708A0F9E70AA0F7E710
:1042100070470000B8C3B3D4D2A9C1CB00000000DE
:10422000BFAAC6F4D2A9BAD000000000B9D8B1D54F
:10423000D2A9BAD000000000D2A9C6B7B2BBD7E35A
:1042400000000000032807D200EB40030348C154DC
:10425000184400214270817070470000000B00205C
:10426000642800D9642007496428087001D3092014
:1042700006E028B100EBC0006421B0FBF1F0C0B251
:1042800000F052B84800002005490878052801D3FD
:10429000401F00E000200870C0B2FFF7E1BF00003F
:1042A00048000020054908785F2801D8401D00E03B
:1042B00064200870C0B2FFF7D3BF000048000020A0
:1042C0002DE9F0415FEA00082BD0FBF779FF0404E9
:1042D000240C26D040F6FE70844222D8FD2060F3E4
:1042E0000705A01C010A61F30F2560F317450120A3
:1042F00060F31F650027601D01F070FD060010D0FF
:104300003560377122464146701DFBF70DFF641D75
:10431000E1B2304601F098FD3046BDE8F04101F0D1
:1043200021BBBDE8F08100003EB5092800D9092075
:10433000084B00216A465C5C5454491CC9B20929E7
:10434000F9D330308DF807000921104601F07CFDCB
:104350003EBD00004D00002010B5406A0021C1851F
:10436000C184FEF764FA10BD01680C3151E8002FDA
:1043700022F4907241E80023002BF5D1016814313A
:1043800051E8002F22F0010241E80023002BF5D173
:10439000016B012909D101680C3151E8002F22F08D
:1043A000100241E80023002BF5D1202180F84210B3
:1043B00000210163704708B590F84210222901D00E
:1043C000022008BD82684FF480539A4201D10169EE
:1043D00021B1816A9A421BD04AB10AE00268816A1F
:1043E0005268C2F308020A80816A891C08E00269E7
:1043F00072B10268526802F07F020A70816A491C39
:104400008162C18D491E0904090CC18503D01BE0DE
:1044100002685268F1E70168CA6822F02002CA60A7
:104420000168CA6822F48072CA6001684A6922F091
:1044300001024A61202180F8421000214163026B91
:10444000012A03D0FEF7D6FB002008BD01630168F6
:104450000C3151E8002F22F0100241E80023002B1C
:10446000F5D101680A68D20602D50A684968009148
:10447000818DFEF7DBF9E7E770B504460068016956
:10448000E26821F44051114301612169A0680843A9
:10449000616908432168CA6841F20C639A43024388
:1044A000CA6020684169A26921F4407111434161E9
:1044B0001E492068884202D1FDF762FC01E0FDF749
:1044C0004FFC00EBC00101EB00126068642180002A
:1044D000B2FBF0F3B3FBF1F36FF018067343B2FBDA
:1044E000F0F5B2FBF0F605EB8305322303EB05157F
:1044F000B5FBF1F5B6FBF1F605F0F00505EB061599
:10450000B2FBF0F6B2FBF0F0B0FBF1F06FF0180286
:10451000504306EB800003EB0010B0FBF1F0216884
:1045200000F00F002844886070BD00000038014092
:1045300081628285C28500214164222180F8421077
:10454000016921B10168CA6842F48072CA600168D9
:104550004A6942F001024A610068C16841F02001E5
:10456000C160002070472DE9F843984617460D4674
:104570000446089E24E0701C22D0FCF76BFFA0EBE1
:104580000800B0421AD8CEB12068C168490717D5D3
:10459000802D15D0402D13D00168C94309070FD4D1
:1045A00001680025406800902046FFF7DDFE0820E6
:1045B000606484F840500120BDE8F8830320FBE7E5
:1045C0002068006835EA000004D00020B842D2D04C
:1045D0000020F1E70120F9E70148FEF729B90000C2
:1045E0007C0C00200148FEF723B90000C40C002019
:1045F000FEE700002DE9F04700242B4DA2B00F4646
:104600008246264643F698284FF47A79534627A2E5
:10461000802101A8009700F0BFFF424628A101A811
:1046200000F09EFE002831D01F2251462C46681C07
:10463000FBF7B0FD84F82060012020704FF4FA7081
:10464000FCF75EFD00F026FEC820FCF759FD4FF494
:10465000FA6422461AA11BA000F082FE38B9C820D5
:10466000FCF74EFD224616A116A000F079FE64204C
:10467000FCF746FD224612A115A000F071FE642051
:10468000FCF73EFD012022B0BDE8F087022C02D2EB
:104690004846FCF735FD641CE4B2032CB6D32E70FB
:1046A00085F821600020EEE7C004002041542B4330
:1046B000574A41503D222573222C222573220000A7
:1046C0004F4B000041542B4349504D55583D31004C
:1046D00041542B4349505345525645523D312C3895
:1046E0003000000010B5064CA2883AB10549521CB2
:1046F000FBF71AFD20790021A18010BD002010BD1C
:10470000420000200007002000487047C00400203D
:104710002DE9F34F087891B088460C462F2801D137
:1047200008F10104E7A12046FBF751FD4FF4807B1F
:10473000002875D0E4A12046FBF749FD00286FD082
:10474000E3A12046FBF743FD0026E44DE44F4FF084
:10475000010900287ED0DFA12046FBF738FD0028A4
:10476000F8D0E0A12046FBF732FD002873D0DEA18F
:104770002046FBF72CFD0028F8D0DDA12046FBF7F2
:1047800026FD002868D0DBA12046FBF720FD00288D
:10479000F8D0DBA12046FBF71AFD002875D0D9A17F
:1047A0002046FBF714FD0028F8D00F22D8A12046A0
:1047B000FBF71BFD002869D00D22D6A12046FBF790
:1047C00014FD00287AD01122D5A12046FBF70DFD5B
:1047D000002869D00E22D3A12046FBF706FD002851
:1047E000F7D00E22D3A12046FBF7FFFC00287AD099
:1047F0000C22D1A12046FBF7F8FC0028F7D00C22B0
:10480000D0A12046FBF7F1FC00286DD00922CEA1F3
:104810002046FBF7EAFC0028F7D0CEA1ADE0FFE789
:104820000FA8FBF7ABFE9DF83C000BAC9DF83F30AA
:104830009DF83E209DF83D1084E80F00CD4807AD5F
:10484000417A047BC37A827A85E81E00047AC388A1
:10485000427902E012E01AE020E0017903AD85E838
:104860001E004178C37882788DE80E000378C24A32
:10487000594600F20E5000F08FFECAE04F2028701B
:104880006E70A7F80490BDA177E010E016E0432019
:1048900028706E70A7F80490C2A16EE055202870B1
:1048A0006E70A7F8049000E022E0C8A165E0442003
:1048B00028706E70A7F80490CFA15EE02078612880
:1048C00013D004F10D0000BF00F0CBFA03465620D0
:1048D00028706B70AE700220B880D3A25946DB48B6
:1048E00000F05AFE48E04EE09AE004F10F00EBE7DA
:1048F000207861280DD00E34002520782F463038DE
:104900002E46022808D8C5B214F8010F262802D076
:1049100002E01134F0E7641C0222CDA12046FBF72F
:1049200064FC48B9A01C00F09CFA074626212046EA
:10493000FBF73CFC58B1441C4CB10222C5A12046F7
:10494000FBF753FC18B9A01C00F08BFA0646032DA8
:104950000DD2324639462846FFF774FCCDE9007681
:104960002B46BDA25946B94800F016FE04E0C9A284
:104970005946B64800F010FEB449119813B0BDE88E
:10498000F04F00F0BFBD1E25CBA12046FBF7F0FB8A
:104990000F273C264124C8A14046FBF7E9FB18B18C
:1049A0000A3000F043FA0546C6A14046FBF7E0FB9B
:1049B00018B1093000F03AFA0746C5A14046FBF7A6
:1049C000D7FB18B1093000F031FA0646C3A14046C2
:1049D000FBF7CEFB18B10A3000F028FA04468DF838
:1049E0000C508DF80D708DF80E608DF80F4003A8F7
:1049F000FBF7F2FD9DF80D009DF80F209DF80E10BD
:104A00008DE807009DF80C30B74A59468F4800F0F2
:104A1000C3FD8E49119800F075FD13B0BDE8F08F0D
:104A20004FF0000AD1465746564655465446AFA168
:104A30004046FBF79DFB18B1801C00F012FA82463D
:104A4000ABA14046FBF794FB18B1C01C00F009FA7B
:104A50008146A8A14046FBF78BFB18B1801C00F0F3
:104A600000FA07467AA14046FBF782FB18B1801C8A
:104A700000F0F7F9064677A14046FBF779FB18B13D
:104A8000801C00F0EEF905469BA14046FBF770FB49
:104A900018B1801C00F0E5F90446CDE90054334616
:104AA0003A4649465046FEF7ABFFCDF80090CDE9B7
:104AB0000354CDE90176534690A25946634800F06D
:104AC0006BFD59E76170692F737461747573000031
:104AD0006170692F6F70656E000000000007002094
:104AE000420000206170692F636C6F7365000000E5
:104AF0006170692F766F6C756D652F7570000000A1
:104B00006170692F766F6C756D652F646F776E00BD
:104B10006170692F766F6C756D653F7365743D00CC
:104B20006170692F72656D696E6465723F7365743B
:104B30003D0000006170692F7468726573686F6C66
:104B4000643F00006170692F73657474696D653F1F
:104B5000000000007B22636F6465223A3430342CFD
:104B6000226D7367223A226E6F7420666F756E64D1
:104B7000227D0000F2040020C06100087B22636FE8
:104B80006465223A302C226D7367223A226F6B22C1
:104B90002C22616374696F6E223A226F70656E22F7
:104BA0007D0000007B22636F6465223A302C226D09
:104BB0007367223A226F6B222C22616374696F6ED5
:104BC000223A22636C6F7365227D00007B22636F43
:104BD0006465223A302C226D7367223A226F6B2271
:104BE0002C22616374696F6E223A22766F6C756D48
:104BF000655F7570227D00007B22636F6465223AD9
:104C0000302C226D7367223A226F6B222C22616353
:104C100074696F6E223A22766F6C756D655F646F92
:104C2000776E227D000000007B22636F6465223A6C
:104C3000302C226D7367223A226F6B222C22766F02
:104C40006C756D65223A25757D000000000A002014
:104C5000683D00006D3D00007B22636F6465223A71
:104C6000302C226D7367223A226F6B222C227265E0
:104C70006D696E646572223A25752C22686F7572B3
:104C8000223A25752C226D696E757465223A257558
:104C90007D0000007B22636F6465223A3430302C43
:104CA000226D7367223A22696E76616C69642069AD
:104CB0006E646578227D000074656D705F68696759
:104CC000683D000074656D705F6C6F773D0000009B
:104CD0006C696768745F6F6E3D0000006C6967689F
:104CE000745F6F66663D000070610008793D0000EA
:104CF0006D6F3D00643D0000733D00007B22636FDB
:104D00006465223A302C226D7367223A226F6B223F
:104D10002C2274696D65223A22253032752D25309A
:104D200032752D2530327520253032753A253032D6
:104D3000753A25303275227D0000000070B52A4991
:104D400000200870487081F821002849488001221D
:104D50002748FDF741FF4FF4FA763046FCF7D0F9CB
:104D60000024B5002A4623A123A000F0F9FAA8B137
:104D7000032C1AD26420FCF7C3F94FF47A7422464C
:104D80001CA11EA000F0ECFA6420FCF7B9F92A4639
:104D900018A11CA000F0E4FA40B10FE03046FCF787
:104DA000AFF9641CE4B2032CDCD370BDC820FCF75F
:104DB000A7F92A460FA113A000F0D2FA6420FCF74D
:104DC0009FF92A460BA112A000F0CAFA6420FCF752
:104DD00097F9224607A112A000F0C2FABDE8704080
:104DE0006420FCF78DB90000C004002042000020C0
:104DF0007C0C00204F4B00004154000041544530D2
:104E00000000000041542B43574D4F44453D3100B5
:104E100041542B43495053544F3D33303000000030
:104E200041542B534C4545503D30000030B50021D6
:104E300003780A462D2B01D10122401C6FF02F046C
:104E40000378A3F13005092D07D801EB810104EBAC
:104E50004101194409B2401CF2E702B1494208B2CB
:104E600030BD10B5014600206FF02F0306E000EBC7
:104E7000800003EB40001044C0B2491C0A78A2F144
:104E80003004092CF3D910BD2DE9F04F95B072B65E
:104E90008F4D688862B600280BD00520FCF730F9EA
:104EA00072B6688820B10024B0F5FF7F04D96C8009
:104EB00062B615B0BDE8F08F8649A8460C546C80E8
:104EC00062B6844884A18146FBF752F907006ED090
:104ED00000262C21781DFBF769F928B17879303844
:104EE000C6B2042E00D900267DA13846FBF740F952
:104EF000050005D17CA13846FBF73AF905004FD0F3
:104F0000402105A8FBF729F92021681DFBF74EF980
:104F10000DF1140B60B1401B401F87B2402F00D32E
:104F20003F273A46691D5846FBF7FEF80BF8074045
:104F30009DF814000DF1140A2F2801D10BF1010A7C
:104F400004226BA15046FBF750F928B34746A8F856
:104F5000044069A15046FBF73AF9694D4FF001084A
:104F6000F8B168A15046FBF732F9002822D067A1BA
:104F70005046FBF72CF9002823D066A15046FBF7DA
:104F800026F9002824D0092264A15046FBF72DF908
:104F9000002824D064A175E051463046FFF7B8FBE5
:104FA0008DE04F2028706C70A7F8048000E06DE061
:104FB00067A167E0432028706C70A7F804806EA199
:104FC00060E0552028706C70A7F8048074A159E047
:104FD000442028706C70A7F804807CA152E04FF048
:104FE000000BD846DA465F465D465C4683A105A8BD
:104FF000FBF7BEF818B1801CFFF733FF834680A192
:1050000005A8FBF7B5F818B1C01CFFF72AFF8046CA
:105010007CA105A8FBF7ACF818B1801CFFF721FFB5
:10502000824679A105A8FBF7A3F818B1801CFFF709
:1050300018FF074675A105A8FBF79AF818B1801C60
:10504000FFF70FFF054672A105A8FBF791F818B10D
:10505000801CFFF706FF0446CDE900543B4652464C
:1050600041465846FEF7CCFCCDF80080CDE903540C
:10507000CDE901A75B4667A24FF48071754800F047
:105080008BFA7449304600F03DFA18E072A14846A8
:10509000FBF76EF898B974A14846FBF769F870B948
:1050A00074A14846FBF764F828B10A4840380470F8
:1050B00080F8214003E073A14846FBF759F84846C1
:1050C00000E0C01D71A1FBF753F80028F9D1F0E60C
:1050D00042000020000500202B4950442C00000015
:1050E000474554202F000000504F5354202F0000FC
:1050F0006170692F000000006F70656E0000000095
:1051000000070020636C6F7365000000766F6C759C
:1051100070000000766F6C646F776E007365747456
:10512000696D653F000000007B22636F6465223A71
:105130003430342C226D7367223A22756E6B6E6F99
:10514000776E20636F6D6D616E64227D00000000DC
:105150007B22636F6465223A302C226D7367223A9A
:10516000226F6B222C22616374696F6E223A226F68
:1051700070656E227D0000007B22636F6465223AB9
:10518000302C226D7367223A226F6B222C226163CE
:1051900074696F6E223A22636C6F7365227D000022
:1051A0007B22636F6465223A302C226D7367223A4A
:1051B000226F6B222C22616374696F6E223A227611
:1051C0006F6C756D655F7570227D00007B22636F6B
:1051D0006465223A302C226D7367223A226F6B226B
:1051E0002C22616374696F6E223A22766F6C756D42
:1051F000655F646F776E227D00000000793D0000DE
:105200006D6F3D00643D0000683D00006D3D000095
:10521000733D00007B22636F6465223A302C226D5F
:105220007367223A226F6B222C2274696D65223AD1
:1052300022253032752D253032752D2530327520DE
:10524000253032753A253032753A25303275227D57
:1052500000000000000A00205749464920434F4EF5
:105260004E454354454400005749464920474F5452
:10527000204950005749464920444953434F4E4E18
:10528000454354004552524F520000002C434C4FAE
:10529000534544002DE9F0470025DFF8A490294E3E
:1052A0004FF4FE782C464FF4FA7772B6748062B6EB
:1052B000C8230A2224A12748FDF7BEFC3846FBF785
:1052C0001FFF72B6708862B6411E41452BD872B678
:1052D0001B4A4032145462B61FA11046FAF748FF29
:1052E00008B300214B46C01D07E000BF03EB010CD3
:1052F000491C8CF82120C9B2401C0278222A06D011
:105300002AB10D2A03D00A2A01D00F29EED358184A
:1053100080F8214099F8210028B172B6748062B6F5
:105320000120BDE8F08772B6748062B63846FBF79C
:10533000E7FE6D1CEDB2052DB7D30020F1E70000AC
:10534000C00400204200002041542B4349465352E0
:105350000D0A00007C0C002053544149502C2200BF
:105360002DE9F047C0B017468A468046FCF772F830
:10537000064672B60025244C658062B64046FAF7B0
:105380001FFF82B2C82341462048FDF755FCC823C1
:1053900002221FA11D48FDF74FFCE9462AE0608864
:1053A00062B620B30520FBF7ABFE72B6B4F80280FC
:1053B00062B65FEA08001AD0B8F1FF0F17D872B6CC
:1053C000424614496846FAF7AFFE62B6BAF10000E9
:1053D00009F808500BD001466846FAF7C9FE30B10B
:1053E00072B6658062B6012040B0BDE8F087022049
:1053F000FBF786FEFCF72EF8801BB84272B6CED3C0
:10540000658062B60020EFE7420000207C0C00209F
:105410000D0A0000000500202DE9F04389B0154673
:105420008846074600244FF4FA663B4629A220210D
:1054300001A8009500F0B0F832462BA101A8FFF7B3
:105440008FFFE0B34FF4FA773B462A4641462748A0
:10545000FDF7F2FBFBF7FEFF0646254C00254FF457
:10546000FE7820E072B6608862B6042818D905205C
:10547000FBF746FE72B6608862B6411E41450FD802
:1054800072B6DFF8709009F8005062B61AA148466B
:10549000FAF76EFE60B91AA14846FAF769FE38B904
:1054A0000220FBF72DFEFBF7D5FF801BB842D9D3B6
:1054B00072B6658062B6012009B0BDE8F083FFE7EF
:1054C0001420FBF71DFE641CE4B2032CADD30020B6
:1054D000F2E7000041542B43495053454E443D25CB
:1054E000752C2575000000003E0000007C0C00209B
:1054F000420000200005002053454E44204F4B0041
:105500004F4B00002DE9F04180460F460846FAF760
:1055100057FE85B24FF400762B460E4A31460E48B0
:1055200000F03AF8B04212D241198CB2B4420ED215
:10553000094E2A4630443946FAF7F6FD0020305528
:10554000224631464046BDE8F041FFF765BFBDE861
:10555000F0810000F060000800080020002818D04A
:105560000C4902780A7042784A7082788A70C27850
:10557000CA7002790A7142794A71C288CA80027A75
:105580000A72427A4A72827A8A72C27ACA72007B3C
:1055900008737047F20400200FB47CB50C0009AD0D
:1055A00001D0611E00E00021CDE90001064B6A46F2
:1055B0002946089800F02AF8002C02D0009A002111
:1055C00011707CBC5DF814FB4F5900080907090EE7
:1055D000002804DB00F1E02080F80014704700F0A0
:1055E0000F0000F1E02080F8141D704702E008C8A9
:1055F000121F08C1002AFAD170477047002001E04D
:1056000001C1121F002AFBD1704700002DE9FF4F96
:105610008BB088460546002606E025280BD0DDE93C
:105620000D1290476D1C761C28780028F5D10FB01C
:105630003046BDE8F08F0024A146A2460122AE49C3
:1056400000E0044315F8013F203B02FA03F0084252
:10565000F7D128782A2810D06FF02F022878A0F1EF
:105660003001092915D809EB890102EB410144F009
:10567000020400EB01096D1CF0E758F8041B5FEA17
:10568000010903D544F40054C9F1000944F00204AF
:105690006D1C28782E2817D115F8010F44F004044A
:1056A0002A280ED06FF02F022878A0F130010929A6
:1056B0000AD80AEB8A0102EB410100EB010A6D1CDA
:1056C000F2E758F804AB6D1C28786C280FD006DC84
:1056D0004C2817D068280DD06A2814D104E074280B
:1056E00010D07A280FD10DE044F400140AE044F4FD
:1056F000801401E044F440146978814202D104F539
:1057000080146D1C6D1C2878692865D006DC002883
:105710008DD0632827D0642806D15DE06E2808D09C
:1057200073282AD0752877D0DDE90D129047761CB2
:10573000E0E0C4F30250022809D003280DD0D8F8C5
:10574000001004280DD00E6008F10408D2E0D8F84B
:105750000010F217C1E90062F6E7D8F800100E80D9
:10576000F2E70E70F0E718F8041B8DF80010002027
:105770008DF80100EB46012003E058F804BB4FF020
:10578000FF3061074FF0000701D40AE07F1C574546
:105790000DDA8742FADB1BF807100029F6D106E084
:1057A0007F1C8742FCDB1BF807100029F8D1DDE9DC
:1057B0000D23A9EB07008146214600F0B1F83044E3
:1057C000C61904E0DDE90D121BF8010B90477F1E9E
:1057D000F8D22146484688E058F8040BC4F3025139
:1057E0004FF00A0B032900D100B2042900D140B2C6
:1057F000002802DA40422D2102E0210505D52B21A7
:105800008DF82410012104E006E0E10710D02021EA
:10581000F6E708AF089113E058F8040BC4F30251FF
:105820004FF00A0B032900D180B2042900D1C0B285
:105830000021EEE75946FAF7D1FD303107F8011D96
:105840000028F7D1ADEB070000F1200B600702D56F
:1058500024F4803401E04FF0010ADA4502DDAAEBBE
:105860000B0000E00020824600EB0B010898014489
:10587000A9EB01000A90E00306D4DDE90D232146DF
:105880000A9800F04DF806444FF0000908E009A915
:1058900011F80900DDE90D12904709F10109761CA4
:1058A00008998945F3DBE0030CD5DDE90D2321469A
:1058B0000A9800F035F8064404E0DDE90D123020C6
:1058C0009047761CBAF10001AAF1010AF5DC05E067
:1058D000DDE90D1217F8010B9047761CBBF10001B2
:1058E000ABF1010BF4DC0A982146DDE90D2300F051
:1058F00005F806446D1C97E6092801002DE9F041E2
:10590000044600251E461746880404D405E039469F
:105910002020B0476D1C641EF9D52846BDE8F081F3
:105920002DE9F041044600251E469046C80301D5E6
:10593000302700E02027880404D505E0414638469A
:10594000B0476D1C641EF9D52846BDE8F0814A6851
:10595000002A06D00A68531C0B6010704868401E6D
:105960004860704710B5002821D0114B0022001F5D
:10597000196803E0814203D80A4649680029F9D131
:1059800052B11368841A9C4204D100681844106014
:10599000104602E0506000E0186039B102680B1A4E
:1059A000934203D10B681A4402604968416010BDFC
:1059B000B80000208AB0FBF7DFFFFEF782FAFDF7A0
:1059C000F7FCFDF7CFFCFDF765FDFDF783FDFDF767
:1059D000A1FDFDF7E3FDFDF719FEFDF733FEFDF731
:1059E00057FEFAF77BFEFAF783FFFDF7B3F9FEF7F0
:1059F00015FAFAF7D1FDFEF7DDFBFDF7DDFBFFF74A
:105A00009DF9FDF73DFE0021CDA20846FDF7E8FE19
:105A1000CDA201210020FDF7E3FEFDF7F3FE4FF4D8
:105A2000FA70FBF76DFBCCA1CFA0FEF7E3FDFDF70D
:105A300027FEFDF7E7FEFBF70DFDCC4C2061FBF7E1
:105A400009FDE060FBF706FD4EF6602A4FF0000806
:105A5000E61CA71DDFF81893C4F81C00FBF7FAFC3E
:105A60002169401A6428F9DBFBF7F4FC2061FDF79B
:105A70000DFCFBF7EFFCE168401AB0F5FA6F06DBAE
:105A8000FBF7E8FCE060B948C01CFAF787FFFDF7B8
:105A900049FC024671783078FAF7B8FDFDF72AF92B
:105AA000B4480A210068B0FBF1F0FAF77EFC6169A6
:105AB000FAF734FCB049FAF7FFFBFAF77BFC2070E9
:105AC000AA48801DFAF77CFEF87860B9FBF7C2FCA3
:105AD000616A401A42F21071884204DBFBF7BAFC9B
